{
  "contractName": "DungenToken",
  "abi": [
    {
      "inputs": [
        {
          "internalType": "string",
          "name": "name",
          "type": "string"
        },
        {
          "internalType": "string",
          "name": "symbol",
          "type": "string"
        }
      ],
      "stateMutability": "nonpayable",
      "type": "constructor"
    },
    {
      "anonymous": false,
      "inputs": [
        {
          "indexed": true,
          "internalType": "address",
          "name": "owner",
          "type": "address"
        },
        {
          "indexed": true,
          "internalType": "address",
          "name": "spender",
          "type": "address"
        },
        {
          "indexed": false,
          "internalType": "uint256",
          "name": "value",
          "type": "uint256"
        }
      ],
      "name": "Approval",
      "type": "event"
    },
    {
      "anonymous": false,
      "inputs": [
        {
          "indexed": true,
          "internalType": "address",
          "name": "from",
          "type": "address"
        },
        {
          "indexed": true,
          "internalType": "address",
          "name": "to",
          "type": "address"
        },
        {
          "indexed": false,
          "internalType": "uint256",
          "name": "value",
          "type": "uint256"
        }
      ],
      "name": "Transfer",
      "type": "event"
    },
    {
      "inputs": [
        {
          "internalType": "address",
          "name": "owner",
          "type": "address"
        },
        {
          "internalType": "address",
          "name": "spender",
          "type": "address"
        }
      ],
      "name": "allowance",
      "outputs": [
        {
          "internalType": "uint256",
          "name": "",
          "type": "uint256"
        }
      ],
      "stateMutability": "view",
      "type": "function"
    },
    {
      "inputs": [
        {
          "internalType": "address",
          "name": "spender",
          "type": "address"
        },
        {
          "internalType": "uint256",
          "name": "amount",
          "type": "uint256"
        }
      ],
      "name": "approve",
      "outputs": [
        {
          "internalType": "bool",
          "name": "",
          "type": "bool"
        }
      ],
      "stateMutability": "nonpayable",
      "type": "function"
    },
    {
      "inputs": [
        {
          "internalType": "address",
          "name": "account",
          "type": "address"
        }
      ],
      "name": "balanceOf",
      "outputs": [
        {
          "internalType": "uint256",
          "name": "",
          "type": "uint256"
        }
      ],
      "stateMutability": "view",
      "type": "function"
    },
    {
      "inputs": [],
      "name": "decimals",
      "outputs": [
        {
          "internalType": "uint8",
          "name": "",
          "type": "uint8"
        }
      ],
      "stateMutability": "view",
      "type": "function"
    },
    {
      "inputs": [
        {
          "internalType": "address",
          "name": "spender",
          "type": "address"
        },
        {
          "internalType": "uint256",
          "name": "subtractedValue",
          "type": "uint256"
        }
      ],
      "name": "decreaseAllowance",
      "outputs": [
        {
          "internalType": "bool",
          "name": "",
          "type": "bool"
        }
      ],
      "stateMutability": "nonpayable",
      "type": "function"
    },
    {
      "inputs": [
        {
          "internalType": "address",
          "name": "spender",
          "type": "address"
        },
        {
          "internalType": "uint256",
          "name": "addedValue",
          "type": "uint256"
        }
      ],
      "name": "increaseAllowance",
      "outputs": [
        {
          "internalType": "bool",
          "name": "",
          "type": "bool"
        }
      ],
      "stateMutability": "nonpayable",
      "type": "function"
    },
    {
      "inputs": [],
      "name": "name",
      "outputs": [
        {
          "internalType": "string",
          "name": "",
          "type": "string"
        }
      ],
      "stateMutability": "view",
      "type": "function"
    },
    {
      "inputs": [],
      "name": "symbol",
      "outputs": [
        {
          "internalType": "string",
          "name": "",
          "type": "string"
        }
      ],
      "stateMutability": "view",
      "type": "function"
    },
    {
      "inputs": [],
      "name": "totalSupply",
      "outputs": [
        {
          "internalType": "uint256",
          "name": "",
          "type": "uint256"
        }
      ],
      "stateMutability": "view",
      "type": "function"
    },
    {
      "inputs": [
        {
          "internalType": "address",
          "name": "recipient",
          "type": "address"
        },
        {
          "internalType": "uint256",
          "name": "amount",
          "type": "uint256"
        }
      ],
      "name": "transfer",
      "outputs": [
        {
          "internalType": "bool",
          "name": "",
          "type": "bool"
        }
      ],
      "stateMutability": "nonpayable",
      "type": "function"
    },
    {
      "inputs": [
        {
          "internalType": "address",
          "name": "sender",
          "type": "address"
        },
        {
          "internalType": "address",
          "name": "recipient",
          "type": "address"
        },
        {
          "internalType": "uint256",
          "name": "amount",
          "type": "uint256"
        }
      ],
      "name": "transferFrom",
      "outputs": [
        {
          "internalType": "bool",
          "name": "",
          "type": "bool"
        }
      ],
      "stateMutability": "nonpayable",
      "type": "function"
    },
    {
      "inputs": [],
      "name": "owner",
      "outputs": [
        {
          "internalType": "address",
          "name": "",
          "type": "address"
        }
      ],
      "stateMutability": "view",
      "type": "function"
    },
    {
      "inputs": [],
      "name": "controller",
      "outputs": [
        {
          "internalType": "address",
          "name": "",
          "type": "address"
        }
      ],
      "stateMutability": "view",
      "type": "function"
    },
    {
      "inputs": [
        {
          "internalType": "address",
          "name": "account",
          "type": "address"
        }
      ],
      "name": "setOwner",
      "outputs": [],
      "stateMutability": "nonpayable",
      "type": "function"
    },
    {
      "inputs": [
        {
          "internalType": "address",
          "name": "controller_",
          "type": "address"
        }
      ],
      "name": "setController",
      "outputs": [],
      "stateMutability": "nonpayable",
      "type": "function"
    },
    {
      "inputs": [
        {
          "internalType": "address",
          "name": "account",
          "type": "address"
        },
        {
          "internalType": "uint256",
          "name": "amount",
          "type": "uint256"
        }
      ],
      "name": "mint",
      "outputs": [],
      "stateMutability": "nonpayable",
      "type": "function"
    },
    {
      "inputs": [
        {
          "internalType": "address",
          "name": "account",
          "type": "address"
        },
        {
          "internalType": "uint256",
          "name": "amount",
          "type": "uint256"
        }
      ],
      "name": "burn",
      "outputs": [],
      "stateMutability": "nonpayable",
      "type": "function"
    }
  ],
  "bytecode": "0x60806040523480156200001157600080fd5b506040516200249d3803806200249d83398181016040528101906200003791906200037e565b81818160039080519060200190620000519291906200025c565b5080600490805190602001906200006a9291906200025c565b50505033600560006101000a81548173ffffffffffffffffffffffffffffffffffffffff021916908373ffffffffffffffffffffffffffffffffffffffff160217905550620000ea600560009054906101000a900473ffffffffffffffffffffffffffffffffffffffff16670de0b6b3a7640000620000f260201b60201c565b50506200065b565b600073ffffffffffffffffffffffffffffffffffffffff168273ffffffffffffffffffffffffffffffffffffffff16141562000165576040517f08c379a00000000000000000000000000000000000000000000000000000000081526004016200015c9062000444565b60405180910390fd5b62000179600083836200025760201b60201c565b80600260008282546200018d9190620004fb565b92505081905550806000808473ffffffffffffffffffffffffffffffffffffffff1673ffffffffffffffffffffffffffffffffffffffff1681526020019081526020016000206000828254620001e49190620004fb565b925050819055508173ffffffffffffffffffffffffffffffffffffffff16600073ffffffffffffffffffffffffffffffffffffffff167fddf252ad1be2c89b69c2b068fc378daa952ba7f163c4a11628f55a4df523b3ef836040516200024b919062000466565b60405180910390a35050565b505050565b8280546200026a9062000598565b90600052602060002090601f0160209004810192826200028e5760008555620002da565b82601f10620002a957805160ff1916838001178555620002da565b82800160010185558215620002da579182015b82811115620002d9578251825591602001919060010190620002bc565b5b509050620002e99190620002ed565b5090565b5b8082111562000308576000816000905550600101620002ee565b5090565b6000620003236200031d84620004b7565b62000483565b9050828152602081018484840111156200033c57600080fd5b6200034984828562000562565b509392505050565b600082601f8301126200036357600080fd5b8151620003758482602086016200030c565b91505092915050565b600080604083850312156200039257600080fd5b600083015167ffffffffffffffff811115620003ad57600080fd5b620003bb8582860162000351565b925050602083015167ffffffffffffffff811115620003d957600080fd5b620003e78582860162000351565b9150509250929050565b600062000400601f83620004ea565b91507f45524332303a206d696e7420746f20746865207a65726f2061646472657373006000830152602082019050919050565b6200043e8162000558565b82525050565b600060208201905081810360008301526200045f81620003f1565b9050919050565b60006020820190506200047d600083018462000433565b92915050565b6000604051905081810181811067ffffffffffffffff82111715620004ad57620004ac6200062c565b5b8060405250919050565b600067ffffffffffffffff821115620004d557620004d46200062c565b5b601f19601f8301169050602081019050919050565b600082825260208201905092915050565b6000620005088262000558565b9150620005158362000558565b9250827fffffffffffffffffffffffffffffffffffffffffffffffffffffffffffffffff038211156200054d576200054c620005ce565b5b828201905092915050565b6000819050919050565b60005b838110156200058257808201518184015260208101905062000565565b8381111562000592576000848401525b50505050565b60006002820490506001821680620005b157607f821691505b60208210811415620005c857620005c7620005fd565b5b50919050565b7f4e487b7100000000000000000000000000000000000000000000000000000000600052601160045260246000fd5b7f4e487b7100000000000000000000000000000000000000000000000000000000600052602260045260246000fd5b7f4e487b7100000000000000000000000000000000000000000000000000000000600052604160045260246000fd5b611e32806200066b6000396000f3fe608060405234801561001057600080fd5b506004361061010b5760003560e01c806370a08231116100a25780639dc29fac116100715780639dc29fac146102ba578063a457c2d7146102d6578063a9059cbb14610306578063dd62ed3e14610336578063f77c4791146103665761010b565b806370a08231146102325780638da5cb5b1461026257806392eefe9b1461028057806395d89b411461029c5761010b565b806323b872dd116100de57806323b872dd14610198578063313ce567146101c857806339509351146101e657806340c10f19146102165761010b565b806306fdde0314610110578063095ea7b31461012e57806313af40351461015e57806318160ddd1461017a575b600080fd5b610118610384565b6040516101259190611a27565b60405180910390f35b610148600480360381019061014391906114ea565b610416565b6040516101559190611a0c565b60405180910390f35b61017860048036038101906101739190611436565b610434565b005b6101826104ed565b60405161018f9190611bc9565b60405180910390f35b6101b260048036038101906101ad919061149b565b6104f7565b6040516101bf9190611a0c565b60405180910390f35b6101d06105f8565b6040516101dd9190611be4565b60405180910390f35b61020060048036038101906101fb91906114ea565b610601565b60405161020d9190611a0c565b60405180910390f35b610230600480360381019061022b91906114ea565b6106ad565b005b61024c60048036038101906102479190611436565b6107dd565b6040516102599190611bc9565b60405180910390f35b61026a610825565b60405161027791906119f1565b60405180910390f35b61029a60048036038101906102959190611436565b61084f565b005b6102a4610908565b6040516102b19190611a27565b60405180910390f35b6102d460048036038101906102cf91906114ea565b61099a565b005b6102f060048036038101906102eb91906114ea565b610aca565b6040516102fd9190611a0c565b60405180910390f35b610320600480360381019061031b91906114ea565b610bbe565b60405161032d9190611a0c565b60405180910390f35b610350600480360381019061034b919061145f565b610bdc565b60405161035d9190611bc9565b60405180910390f35b61036e610c63565b60405161037b91906119f1565b60405180910390f35b60606003805461039390611d2d565b80601f01602080910402602001604051908101604052809291908181526020018280546103bf90611d2d565b801561040c5780601f106103e15761010080835404028352916020019161040c565b820191906000526020600020905b8154815290600101906020018083116103ef57829003601f168201915b5050505050905090565b600061042a610423610c8d565b8484610c95565b6001905092915050565b61043c610825565b73ffffffffffffffffffffffffffffffffffffffff163373ffffffffffffffffffffffffffffffffffffffff16146104a9576040517f08c379a00000000000000000000000000000000000000000000000000000000081526004016104a090611ac9565b60405180910390fd5b80600560006101000a81548173ffffffffffffffffffffffffffffffffffffffff021916908373ffffffffffffffffffffffffffffffffffffffff16021790555050565b6000600254905090565b6000610504848484610e60565b6000600160008673ffffffffffffffffffffffffffffffffffffffff1673ffffffffffffffffffffffffffffffffffffffff168152602001908152602001600020600061054f610c8d565b73ffffffffffffffffffffffffffffffffffffffff1673ffffffffffffffffffffffffffffffffffffffff168152602001908152602001600020549050828110156105cf576040517f08c379a00000000000000000000000000000000000000000000000000000000081526004016105c690611ae9565b60405180910390fd5b6105ec856105db610c8d565b85846105e79190611c71565b610c95565b60019150509392505050565b60006012905090565b60006106a361060e610c8d565b84846001600061061c610c8d565b73ffffffffffffffffffffffffffffffffffffffff1673ffffffffffffffffffffffffffffffffffffffff16815260200190815260200160002060008873ffffffffffffffffffffffffffffffffffffffff1673ffffffffffffffffffffffffffffffffffffffff1681526020019081526020016000205461069e9190611c1b565b610c95565b6001905092915050565b600073ffffffffffffffffffffffffffffffffffffffff16600660009054906101000a900473ffffffffffffffffffffffffffffffffffffffff1673ffffffffffffffffffffffffffffffffffffffff16141561073f576040517f08c379a000000000000000000000000000000000000000000000000000000000815260040161073690611b69565b60405180910390fd5b600660009054906101000a900473ffffffffffffffffffffffffffffffffffffffff1673ffffffffffffffffffffffffffffffffffffffff163373ffffffffffffffffffffffffffffffffffffffff16146107cf576040517f08c379a00000000000000000000000000000000000000000000000000000000081526004016107c690611ac9565b60405180910390fd5b6107d982826110df565b5050565b60008060008373ffffffffffffffffffffffffffffffffffffffff1673ffffffffffffffffffffffffffffffffffffffff168152602001908152602001600020549050919050565b6000600560009054906101000a900473ffffffffffffffffffffffffffffffffffffffff16905090565b610857610825565b73ffffffffffffffffffffffffffffffffffffffff163373ffffffffffffffffffffffffffffffffffffffff16146108c4576040517f08c379a00000000000000000000000000000000000000000000000000000000081526004016108bb90611ac9565b60405180910390fd5b80600660006101000a81548173ffffffffffffffffffffffffffffffffffffffff021916908373ffffffffffffffffffffffffffffffffffffffff16021790555050565b60606004805461091790611d2d565b80601f016020809104026020016040519081016040528092919081815260200182805461094390611d2d565b80156109905780601f1061096557610100808354040283529160200191610990565b820191906000526020600020905b81548152906001019060200180831161097357829003601f168201915b5050505050905090565b600073ffffffffffffffffffffffffffffffffffffffff16600660009054906101000a900473ffffffffffffffffffffffffffffffffffffffff1673ffffffffffffffffffffffffffffffffffffffff161415610a2c576040517f08c379a0000000000000000000000000000000000000000000000000000000008152600401610a2390611b69565b60405180910390fd5b600660009054906101000a900473ffffffffffffffffffffffffffffffffffffffff1673ffffffffffffffffffffffffffffffffffffffff163373ffffffffffffffffffffffffffffffffffffffff1614610abc576040517f08c379a0000000000000000000000000000000000000000000000000000000008152600401610ab390611ac9565b60405180910390fd5b610ac68282611233565b5050565b60008060016000610ad9610c8d565b73ffffffffffffffffffffffffffffffffffffffff1673ffffffffffffffffffffffffffffffffffffffff16815260200190815260200160002060008573ffffffffffffffffffffffffffffffffffffffff1673ffffffffffffffffffffffffffffffffffffffff16815260200190815260200160002054905082811015610b96576040517f08c379a0000000000000000000000000000000000000000000000000000000008152600401610b8d90611b89565b60405180910390fd5b610bb3610ba1610c8d565b858584610bae9190611c71565b610c95565b600191505092915050565b6000610bd2610bcb610c8d565b8484610e60565b6001905092915050565b6000600160008473ffffffffffffffffffffffffffffffffffffffff1673ffffffffffffffffffffffffffffffffffffffff16815260200190815260200160002060008373ffffffffffffffffffffffffffffffffffffffff1673ffffffffffffffffffffffffffffffffffffffff16815260200190815260200160002054905092915050565b6000600660009054906101000a900473ffffffffffffffffffffffffffffffffffffffff16905090565b600033905090565b600073ffffffffffffffffffffffffffffffffffffffff168373ffffffffffffffffffffffffffffffffffffffff161415610d05576040517f08c379a0000000000000000000000000000000000000000000000000000000008152600401610cfc90611b49565b60405180910390fd5b600073ffffffffffffffffffffffffffffffffffffffff168273ffffffffffffffffffffffffffffffffffffffff161415610d75576040517f08c379a0000000000000000000000000000000000000000000000000000000008152600401610d6c90611a89565b60405180910390fd5b80600160008573ffffffffffffffffffffffffffffffffffffffff1673ffffffffffffffffffffffffffffffffffffffff16815260200190815260200160002060008473ffffffffffffffffffffffffffffffffffffffff1673ffffffffffffffffffffffffffffffffffffffff168152602001908152602001600020819055508173ffffffffffffffffffffffffffffffffffffffff168373ffffffffffffffffffffffffffffffffffffffff167f8c5be1e5ebec7d5bd14f71427d1e84f3dd0314c0f7b2291e5b200ac8c7c3b92583604051610e539190611bc9565b60405180910390a3505050565b600073ffffffffffffffffffffffffffffffffffffffff168373ffffffffffffffffffffffffffffffffffffffff161415610ed0576040517f08c379a0000000000000000000000000000000000000000000000000000000008152600401610ec790611b29565b60405180910390fd5b600073ffffffffffffffffffffffffffffffffffffffff168273ffffffffffffffffffffffffffffffffffffffff161415610f40576040517f08c379a0000000000000000000000000000000000000000000000000000000008152600401610f3790611a49565b60405180910390fd5b610f4b838383611407565b60008060008573ffffffffffffffffffffffffffffffffffffffff1673ffffffffffffffffffffffffffffffffffffffff16815260200190815260200160002054905081811015610fd1576040517f08c379a0000000000000000000000000000000000000000000000000000000008152600401610fc890611aa9565b60405180910390fd5b8181610fdd9190611c71565b6000808673ffffffffffffffffffffffffffffffffffffffff1673ffffffffffffffffffffffffffffffffffffffff16815260200190815260200160002081905550816000808573ffffffffffffffffffffffffffffffffffffffff1673ffffffffffffffffffffffffffffffffffffffff168152602001908152602001600020600082825461106d9190611c1b565b925050819055508273ffffffffffffffffffffffffffffffffffffffff168473ffffffffffffffffffffffffffffffffffffffff167fddf252ad1be2c89b69c2b068fc378daa952ba7f163c4a11628f55a4df523b3ef846040516110d19190611bc9565b60405180910390a350505050565b600073ffffffffffffffffffffffffffffffffffffffff168273ffffffffffffffffffffffffffffffffffffffff16141561114f576040517f08c379a000000000000000000000000000000000000000000000000000000000815260040161114690611ba9565b60405180910390fd5b61115b60008383611407565b806002600082825461116d9190611c1b565b92505081905550806000808473ffffffffffffffffffffffffffffffffffffffff1673ffffffffffffffffffffffffffffffffffffffff16815260200190815260200160002060008282546111c29190611c1b565b925050819055508173ffffffffffffffffffffffffffffffffffffffff16600073ffffffffffffffffffffffffffffffffffffffff167fddf252ad1be2c89b69c2b068fc378daa952ba7f163c4a11628f55a4df523b3ef836040516112279190611bc9565b60405180910390a35050565b600073ffffffffffffffffffffffffffffffffffffffff168273ffffffffffffffffffffffffffffffffffffffff1614156112a3576040517f08c379a000000000000000000000000000000000000000000000000000000000815260040161129a90611b09565b60405180910390fd5b6112af82600083611407565b60008060008473ffffffffffffffffffffffffffffffffffffffff1673ffffffffffffffffffffffffffffffffffffffff16815260200190815260200160002054905081811015611335576040517f08c379a000000000000000000000000000000000000000000000000000000000815260040161132c90611a69565b60405180910390fd5b81816113419190611c71565b6000808573ffffffffffffffffffffffffffffffffffffffff1673ffffffffffffffffffffffffffffffffffffffff1681526020019081526020016000208190555081600260008282546113959190611c71565b92505081905550600073ffffffffffffffffffffffffffffffffffffffff168373ffffffffffffffffffffffffffffffffffffffff167fddf252ad1be2c89b69c2b068fc378daa952ba7f163c4a11628f55a4df523b3ef846040516113fa9190611bc9565b60405180910390a3505050565b505050565b60008135905061141b81611dce565b92915050565b60008135905061143081611de5565b92915050565b60006020828403121561144857600080fd5b60006114568482850161140c565b91505092915050565b6000806040838503121561147257600080fd5b60006114808582860161140c565b92505060206114918582860161140c565b9150509250929050565b6000806000606084860312156114b057600080fd5b60006114be8682870161140c565b93505060206114cf8682870161140c565b92505060406114e086828701611421565b9150509250925092565b600080604083850312156114fd57600080fd5b600061150b8582860161140c565b925050602061151c85828601611421565b9150509250929050565b61152f81611ca5565b82525050565b61153e81611cb7565b82525050565b600061154f82611bff565b6115598185611c0a565b9350611569818560208601611cfa565b61157281611dbd565b840191505092915050565b600061158a602383611c0a565b91507f45524332303a207472616e7366657220746f20746865207a65726f206164647260008301527f65737300000000000000000000000000000000000000000000000000000000006020830152604082019050919050565b60006115f0602283611c0a565b91507f45524332303a206275726e20616d6f756e7420657863656564732062616c616e60008301527f63650000000000000000000000000000000000000000000000000000000000006020830152604082019050919050565b6000611656602283611c0a565b91507f45524332303a20617070726f766520746f20746865207a65726f20616464726560008301527f73730000000000000000000000000000000000000000000000000000000000006020830152604082019050919050565b60006116bc602683611c0a565b91507f45524332303a207472616e7366657220616d6f756e742065786365656473206260008301527f616c616e636500000000000000000000000000000000000000000000000000006020830152604082019050919050565b6000611722601583611c0a565b91507f44756e67656e436f696e3a20464f5242494444454e00000000000000000000006000830152602082019050919050565b6000611762602883611c0a565b91507f45524332303a207472616e7366657220616d6f756e742065786365656473206160008301527f6c6c6f77616e63650000000000000000000000000000000000000000000000006020830152604082019050919050565b60006117c8602183611c0a565b91507f45524332303a206275726e2066726f6d20746865207a65726f2061646472657360008301527f73000000000000000000000000000000000000000000000000000000000000006020830152604082019050919050565b600061182e602583611c0a565b91507f45524332303a207472616e736665722066726f6d20746865207a65726f20616460008301527f64726573730000000000000000000000000000000000000000000000000000006020830152604082019050919050565b6000611894602483611c0a565b91507f45524332303a20617070726f76652066726f6d20746865207a65726f2061646460008301527f72657373000000000000000000000000000000000000000000000000000000006020830152604082019050919050565b60006118fa601583611c0a565b91507f44756e67656e436f696e3a206f206164647265737300000000000000000000006000830152602082019050919050565b600061193a602583611c0a565b91507f45524332303a2064656372656173656420616c6c6f77616e63652062656c6f7760008301527f207a65726f0000000000000000000000000000000000000000000000000000006020830152604082019050919050565b60006119a0601f83611c0a565b91507f45524332303a206d696e7420746f20746865207a65726f2061646472657373006000830152602082019050919050565b6119dc81611ce3565b82525050565b6119eb81611ced565b82525050565b6000602082019050611a066000830184611526565b92915050565b6000602082019050611a216000830184611535565b92915050565b60006020820190508181036000830152611a418184611544565b905092915050565b60006020820190508181036000830152611a628161157d565b9050919050565b60006020820190508181036000830152611a82816115e3565b9050919050565b60006020820190508181036000830152611aa281611649565b9050919050565b60006020820190508181036000830152611ac2816116af565b9050919050565b60006020820190508181036000830152611ae281611715565b9050919050565b60006020820190508181036000830152611b0281611755565b9050919050565b60006020820190508181036000830152611b22816117bb565b9050919050565b60006020820190508181036000830152611b4281611821565b9050919050565b60006020820190508181036000830152611b6281611887565b9050919050565b60006020820190508181036000830152611b82816118ed565b9050919050565b60006020820190508181036000830152611ba28161192d565b9050919050565b60006020820190508181036000830152611bc281611993565b9050919050565b6000602082019050611bde60008301846119d3565b92915050565b6000602082019050611bf960008301846119e2565b92915050565b600081519050919050565b600082825260208201905092915050565b6000611c2682611ce3565b9150611c3183611ce3565b9250827fffffffffffffffffffffffffffffffffffffffffffffffffffffffffffffffff03821115611c6657611c65611d5f565b5b828201905092915050565b6000611c7c82611ce3565b9150611c8783611ce3565b925082821015611c9a57611c99611d5f565b5b828203905092915050565b6000611cb082611cc3565b9050919050565b60008115159050919050565b600073ffffffffffffffffffffffffffffffffffffffff82169050919050565b6000819050919050565b600060ff82169050919050565b60005b83811015611d18578082015181840152602081019050611cfd565b83811115611d27576000848401525b50505050565b60006002820490506001821680611d4557607f821691505b60208210811415611d5957611d58611d8e565b5b50919050565b7f4e487b7100000000000000000000000000000000000000000000000000000000600052601160045260246000fd5b7f4e487b7100000000000000000000000000000000000000000000000000000000600052602260045260246000fd5b6000601f19601f8301169050919050565b611dd781611ca5565b8114611de257600080fd5b50565b611dee81611ce3565b8114611df957600080fd5b5056fea26469706673582212204f298043c0526d725379cb986e5fae69187ce67000cee0051392342c18e97af764736f6c63430008000033",
  "immutableReferences": {},
  "source": "// SPDX-License-Identifier: MIT\n\npragma solidity ^0.8.0;\n\nimport \"@openzeppelin/contracts/token/ERC20/ERC20.sol\";\n\nimport \"../ICustomERC20.sol\";\n\ncontract DungenToken is ICustomERC20, ERC20 {\n    /**\n     * @dev State varaibels.\n     */\n\n    address private _owner;\n    address private _controller;\n\n    /**\n     * @notice Modifiers.\n     */\n\n    modifier controllerIsSet() {\n        require(_controller != address(0), \"DungenCoin: o address\");\n        _;\n    }\n\n    modifier onlyController() {\n        require(msg.sender == _controller, \"DungenCoin: FORBIDDEN\");\n        _;\n    }\n\n    modifier onlyOwner() {\n        require(msg.sender == owner(), \"DungenCoin: FORBIDDEN\");\n        _;\n    }\n\n    /**\n     * @notice Constructor.\n     */\n\n    constructor(string memory name, string memory symbol)\n        public\n        ERC20(name, symbol)\n    {\n        _owner = msg.sender;\n\n        // Genesis supply.\n        _mint(_owner, 10**18);\n    }\n\n    /**\n     * @notice View.\n     */\n\n    function owner() public view returns (address) {\n        return _owner;\n    }\n\n    function controller() public view returns (address) {\n        return _controller;\n    }\n\n    /**\n     * @notice Setters.\n     */\n\n    function setOwner(address account) public onlyOwner {\n        _owner = account;\n    }\n\n    function setController(address controller_) public onlyOwner {\n        _controller = controller_;\n    }\n\n    /**\n     * @notice Mutations.\n     */\n\n    function mint(address account, uint256 amount)\n        public\n        override\n        controllerIsSet\n        onlyController\n    {\n        _mint(account, amount);\n    }\n\n    function burn(address account, uint256 amount)\n        public\n        override\n        controllerIsSet\n        onlyController\n    {\n        _burn(account, amount);\n    }\n}",
  "sourcePath": "/Users/eliojordanlopes/Desktop/Blockchain/wormhole/RPG-Solidity-Game/blockchain/src/contracts/token/DungenToken.sol",
  "compiler": {
    "name": "solc",
    "version": "0.8.0+commit.c7dfd78e.Emscripten.clang"
  },
  "schemaVersion": "3.4.3",
  "updatedAt": "2022-05-22T09:13:29.481Z",
  "devdoc": {
    "kind": "dev",
    "methods": {
      "allowance(address,address)": {
        "details": "See {IERC20-allowance}."
      },
      "approve(address,uint256)": {
        "details": "See {IERC20-approve}. Requirements: - `spender` cannot be the zero address."
      },
      "balanceOf(address)": {
        "details": "See {IERC20-balanceOf}."
      },
      "decimals()": {
        "details": "Returns the number of decimals used to get its user representation. For example, if `decimals` equals `2`, a balance of `505` tokens should be displayed to a user as `5,05` (`505 / 10 ** 2`). Tokens usually opt for a value of 18, imitating the relationship between Ether and Wei. This is the value {ERC20} uses, unless this function is overridden; NOTE: This information is only used for _display_ purposes: it in no way affects any of the arithmetic of the contract, including {IERC20-balanceOf} and {IERC20-transfer}."
      },
      "decreaseAllowance(address,uint256)": {
        "details": "Atomically decreases the allowance granted to `spender` by the caller. This is an alternative to {approve} that can be used as a mitigation for problems described in {IERC20-approve}. Emits an {Approval} event indicating the updated allowance. Requirements: - `spender` cannot be the zero address. - `spender` must have allowance for the caller of at least `subtractedValue`."
      },
      "increaseAllowance(address,uint256)": {
        "details": "Atomically increases the allowance granted to `spender` by the caller. This is an alternative to {approve} that can be used as a mitigation for problems described in {IERC20-approve}. Emits an {Approval} event indicating the updated allowance. Requirements: - `spender` cannot be the zero address."
      },
      "name()": {
        "details": "Returns the name of the token."
      },
      "symbol()": {
        "details": "Returns the symbol of the token, usually a shorter version of the name."
      },
      "totalSupply()": {
        "details": "See {IERC20-totalSupply}."
      },
      "transfer(address,uint256)": {
        "details": "See {IERC20-transfer}. Requirements: - `recipient` cannot be the zero address. - the caller must have a balance of at least `amount`."
      },
      "transferFrom(address,address,uint256)": {
        "details": "See {IERC20-transferFrom}. Emits an {Approval} event indicating the updated allowance. This is not required by the EIP. See the note at the beginning of {ERC20}. Requirements: - `sender` and `recipient` cannot be the zero address. - `sender` must have a balance of at least `amount`. - the caller must have allowance for ``sender``'s tokens of at least `amount`."
      }
    },
    "stateVariables": {
      "_owner": {
        "details": "State varaibels."
      }
    },
    "version": 1
  },
  "userdoc": {
    "kind": "user",
    "methods": {
      "constructor": {
        "notice": "Constructor."
      },
      "mint(address,uint256)": {
        "notice": "Mutations."
      },
      "owner()": {
        "notice": "View."
      },
      "setOwner(address)": {
        "notice": "Setters."
      }
    },
    "version": 1
  }
}